{
  "_format": "hh-sol-artifact-1",
  "contractName": "NFTMarketplace",
  "sourceName": "contracts/NFTMarketplace.sol",
  "abi": [
    {
      "inputs": [],
      "stateMutability": "nonpayable",
      "type": "constructor"
    },
    {
      "anonymous": false,
      "inputs": [
        {
          "indexed": true,
          "internalType": "address",
          "name": "owner",
          "type": "address"
        },
        {
          "indexed": true,
          "internalType": "address",
          "name": "approved",
          "type": "address"
        },
        {
          "indexed": true,
          "internalType": "uint256",
          "name": "tokenId",
          "type": "uint256"
        }
      ],
      "name": "Approval",
      "type": "event"
    },
    {
      "anonymous": false,
      "inputs": [
        {
          "indexed": true,
          "internalType": "address",
          "name": "owner",
          "type": "address"
        },
        {
          "indexed": true,
          "internalType": "address",
          "name": "operator",
          "type": "address"
        },
        {
          "indexed": false,
          "internalType": "bool",
          "name": "approved",
          "type": "bool"
        }
      ],
      "name": "ApprovalForAll",
      "type": "event"
    },
    {
      "anonymous": false,
      "inputs": [
        {
          "indexed": true,
          "internalType": "uint256",
          "name": "tokenId",
          "type": "uint256"
        },
        {
          "indexed": false,
          "internalType": "address",
          "name": "owner",
          "type": "address"
        },
        {
          "indexed": false,
          "internalType": "address",
          "name": "seller",
          "type": "address"
        },
        {
          "indexed": false,
          "internalType": "uint256",
          "name": "price",
          "type": "uint256"
        },
        {
          "indexed": false,
          "internalType": "bool",
          "name": "currentlyListed",
          "type": "bool"
        }
      ],
      "name": "TokenListedSuccess",
      "type": "event"
    },
    {
      "anonymous": false,
      "inputs": [
        {
          "indexed": true,
          "internalType": "address",
          "name": "from",
          "type": "address"
        },
        {
          "indexed": true,
          "internalType": "address",
          "name": "to",
          "type": "address"
        },
        {
          "indexed": true,
          "internalType": "uint256",
          "name": "tokenId",
          "type": "uint256"
        }
      ],
      "name": "Transfer",
      "type": "event"
    },
    {
      "inputs": [
        {
          "internalType": "address",
          "name": "to",
          "type": "address"
        },
        {
          "internalType": "uint256",
          "name": "tokenId",
          "type": "uint256"
        }
      ],
      "name": "approve",
      "outputs": [],
      "stateMutability": "nonpayable",
      "type": "function"
    },
    {
      "inputs": [
        {
          "internalType": "address",
          "name": "owner",
          "type": "address"
        }
      ],
      "name": "balanceOf",
      "outputs": [
        {
          "internalType": "uint256",
          "name": "",
          "type": "uint256"
        }
      ],
      "stateMutability": "view",
      "type": "function"
    },
    {
      "inputs": [
        {
          "internalType": "string",
          "name": "tokenURI",
          "type": "string"
        },
        {
          "internalType": "uint256",
          "name": "price",
          "type": "uint256"
        }
      ],
      "name": "createToken",
      "outputs": [
        {
          "internalType": "uint256",
          "name": "",
          "type": "uint256"
        }
      ],
      "stateMutability": "payable",
      "type": "function"
    },
    {
      "inputs": [
        {
          "internalType": "uint256",
          "name": "tokenId",
          "type": "uint256"
        }
      ],
      "name": "executeSale",
      "outputs": [],
      "stateMutability": "payable",
      "type": "function"
    },
    {
      "inputs": [],
      "name": "getAllNFTs",
      "outputs": [
        {
          "components": [
            {
              "internalType": "uint256",
              "name": "tokenId",
              "type": "uint256"
            },
            {
              "internalType": "address",
              "name": "owner",
              "type": "address"
            },
            {
              "internalType": "address",
              "name": "seller",
              "type": "address"
            },
            {
              "internalType": "uint256",
              "name": "price",
              "type": "uint256"
            },
            {
              "internalType": "bool",
              "name": "currentlyListed",
              "type": "bool"
            },
            {
              "internalType": "address",
              "name": "creator",
              "type": "address"
            }
          ],
          "internalType": "struct NFTMarketplace.ListedToken[]",
          "name": "",
          "type": "tuple[]"
        }
      ],
      "stateMutability": "view",
      "type": "function"
    },
    {
      "inputs": [
        {
          "internalType": "uint256",
          "name": "tokenId",
          "type": "uint256"
        }
      ],
      "name": "getApproved",
      "outputs": [
        {
          "internalType": "address",
          "name": "",
          "type": "address"
        }
      ],
      "stateMutability": "view",
      "type": "function"
    },
    {
      "inputs": [],
      "name": "getCurrentToken",
      "outputs": [
        {
          "internalType": "uint256",
          "name": "",
          "type": "uint256"
        }
      ],
      "stateMutability": "view",
      "type": "function"
    },
    {
      "inputs": [],
      "name": "getLatestIdToListenToken",
      "outputs": [
        {
          "components": [
            {
              "internalType": "uint256",
              "name": "tokenId",
              "type": "uint256"
            },
            {
              "internalType": "address",
              "name": "owner",
              "type": "address"
            },
            {
              "internalType": "address",
              "name": "seller",
              "type": "address"
            },
            {
              "internalType": "uint256",
              "name": "price",
              "type": "uint256"
            },
            {
              "internalType": "bool",
              "name": "currentlyListed",
              "type": "bool"
            },
            {
              "internalType": "address",
              "name": "creator",
              "type": "address"
            }
          ],
          "internalType": "struct NFTMarketplace.ListedToken",
          "name": "",
          "type": "tuple"
        }
      ],
      "stateMutability": "view",
      "type": "function"
    },
    {
      "inputs": [],
      "name": "getListPirce",
      "outputs": [
        {
          "internalType": "uint256",
          "name": "",
          "type": "uint256"
        }
      ],
      "stateMutability": "view",
      "type": "function"
    },
    {
      "inputs": [
        {
          "internalType": "uint256",
          "name": "_tokenId",
          "type": "uint256"
        }
      ],
      "name": "getListedForTokenId",
      "outputs": [
        {
          "components": [
            {
              "internalType": "uint256",
              "name": "tokenId",
              "type": "uint256"
            },
            {
              "internalType": "address",
              "name": "owner",
              "type": "address"
            },
            {
              "internalType": "address",
              "name": "seller",
              "type": "address"
            },
            {
              "internalType": "uint256",
              "name": "price",
              "type": "uint256"
            },
            {
              "internalType": "bool",
              "name": "currentlyListed",
              "type": "bool"
            },
            {
              "internalType": "address",
              "name": "creator",
              "type": "address"
            }
          ],
          "internalType": "struct NFTMarketplace.ListedToken",
          "name": "",
          "type": "tuple"
        }
      ],
      "stateMutability": "view",
      "type": "function"
    },
    {
      "inputs": [],
      "name": "getMyNFTs",
      "outputs": [
        {
          "components": [
            {
              "internalType": "uint256",
              "name": "tokenId",
              "type": "uint256"
            },
            {
              "internalType": "address",
              "name": "owner",
              "type": "address"
            },
            {
              "internalType": "address",
              "name": "seller",
              "type": "address"
            },
            {
              "internalType": "uint256",
              "name": "price",
              "type": "uint256"
            },
            {
              "internalType": "bool",
              "name": "currentlyListed",
              "type": "bool"
            },
            {
              "internalType": "address",
              "name": "creator",
              "type": "address"
            }
          ],
          "internalType": "struct NFTMarketplace.ListedToken[]",
          "name": "",
          "type": "tuple[]"
        }
      ],
      "stateMutability": "view",
      "type": "function"
    },
    {
      "inputs": [],
      "name": "getroyaltiesPirce",
      "outputs": [
        {
          "internalType": "uint256",
          "name": "",
          "type": "uint256"
        }
      ],
      "stateMutability": "view",
      "type": "function"
    },
    {
      "inputs": [
        {
          "internalType": "address",
          "name": "owner",
          "type": "address"
        },
        {
          "internalType": "address",
          "name": "operator",
          "type": "address"
        }
      ],
      "name": "isApprovedForAll",
      "outputs": [
        {
          "internalType": "bool",
          "name": "",
          "type": "bool"
        }
      ],
      "stateMutability": "view",
      "type": "function"
    },
    {
      "inputs": [],
      "name": "name",
      "outputs": [
        {
          "internalType": "string",
          "name": "",
          "type": "string"
        }
      ],
      "stateMutability": "view",
      "type": "function"
    },
    {
      "inputs": [
        {
          "internalType": "uint256",
          "name": "_tokenId",
          "type": "uint256"
        },
        {
          "internalType": "uint256",
          "name": "price",
          "type": "uint256"
        }
      ],
      "name": "onShelveToken",
      "outputs": [],
      "stateMutability": "payable",
      "type": "function"
    },
    {
      "inputs": [
        {
          "internalType": "uint256",
          "name": "tokenId",
          "type": "uint256"
        }
      ],
      "name": "ownerOf",
      "outputs": [
        {
          "internalType": "address",
          "name": "",
          "type": "address"
        }
      ],
      "stateMutability": "view",
      "type": "function"
    },
    {
      "inputs": [
        {
          "internalType": "address",
          "name": "from",
          "type": "address"
        },
        {
          "internalType": "address",
          "name": "to",
          "type": "address"
        },
        {
          "internalType": "uint256",
          "name": "tokenId",
          "type": "uint256"
        }
      ],
      "name": "safeTransferFrom",
      "outputs": [],
      "stateMutability": "nonpayable",
      "type": "function"
    },
    {
      "inputs": [
        {
          "internalType": "address",
          "name": "from",
          "type": "address"
        },
        {
          "internalType": "address",
          "name": "to",
          "type": "address"
        },
        {
          "internalType": "uint256",
          "name": "tokenId",
          "type": "uint256"
        },
        {
          "internalType": "bytes",
          "name": "data",
          "type": "bytes"
        }
      ],
      "name": "safeTransferFrom",
      "outputs": [],
      "stateMutability": "nonpayable",
      "type": "function"
    },
    {
      "inputs": [
        {
          "internalType": "address",
          "name": "operator",
          "type": "address"
        },
        {
          "internalType": "bool",
          "name": "approved",
          "type": "bool"
        }
      ],
      "name": "setApprovalForAll",
      "outputs": [],
      "stateMutability": "nonpayable",
      "type": "function"
    },
    {
      "inputs": [
        {
          "internalType": "bytes4",
          "name": "interfaceId",
          "type": "bytes4"
        }
      ],
      "name": "supportsInterface",
      "outputs": [
        {
          "internalType": "bool",
          "name": "",
          "type": "bool"
        }
      ],
      "stateMutability": "view",
      "type": "function"
    },
    {
      "inputs": [],
      "name": "symbol",
      "outputs": [
        {
          "internalType": "string",
          "name": "",
          "type": "string"
        }
      ],
      "stateMutability": "view",
      "type": "function"
    },
    {
      "inputs": [
        {
          "internalType": "uint256",
          "name": "tokenId",
          "type": "uint256"
        }
      ],
      "name": "tokenURI",
      "outputs": [
        {
          "internalType": "string",
          "name": "",
          "type": "string"
        }
      ],
      "stateMutability": "view",
      "type": "function"
    },
    {
      "inputs": [
        {
          "internalType": "address",
          "name": "from",
          "type": "address"
        },
        {
          "internalType": "address",
          "name": "to",
          "type": "address"
        },
        {
          "internalType": "uint256",
          "name": "tokenId",
          "type": "uint256"
        }
      ],
      "name": "transferFrom",
      "outputs": [],
      "stateMutability": "nonpayable",
      "type": "function"
    },
    {
      "inputs": [
        {
          "internalType": "uint256",
          "name": "_listPrice",
          "type": "uint256"
        }
      ],
      "name": "updateListPrice",
      "outputs": [],
      "stateMutability": "payable",
      "type": "function"
    },
    {
      "inputs": [
        {
          "internalType": "uint256",
          "name": "_royalties",
          "type": "uint256"
        }
      ],
      "name": "updateRoyaltiesPrice",
      "outputs": [],
      "stateMutability": "payable",
      "type": "function"
    }
  ],
  "bytecode": "0x6080604052662386f26fc10000600a55600a600b553480156200002157600080fd5b506040518060400160405280600e81526020017f4e46544d61726b6574706c6163740000000000000000000000000000000000008152506040518060400160405280600481526020017f4e46544a000000000000000000000000000000000000000000000000000000008152508160009080519060200190620000a692919062000109565b508060019080519060200190620000bf92919062000109565b50505033600760006101000a81548173ffffffffffffffffffffffffffffffffffffffff021916908373ffffffffffffffffffffffffffffffffffffffff1602179055506200021e565b8280546200011790620001b9565b90600052602060002090601f0160209004810192826200013b576000855562000187565b82601f106200015657805160ff191683800117855562000187565b8280016001018555821562000187579182015b828111156200018657825182559160200191906001019062000169565b5b5090506200019691906200019a565b5090565b5b80821115620001b55760008160009055506001016200019b565b5090565b60006002820490506001821680620001d257607f821691505b60208210811415620001e957620001e8620001ef565b5b50919050565b7f4e487b7100000000000000000000000000000000000000000000000000000000600052602260045260246000fd5b614557806200022e6000396000f3fe6080604052600436106101665760003560e01c806372b3b620116100d1578063a22cb4651161008a578063c87b56dd11610064578063c87b56dd1461050b578063e0391b0914610548578063e985e9c514610573578063ef2d1746146105b057610166565b8063a22cb4651461049d578063b88d4fde146104c6578063c322579c146104ef57610166565b806372b3b6201461039357806373e52919146103c357806395d89b41146103ee57806398c3df161461041957806399ce6891146104565780639b1225c41461048157610166565b806323b872dd1161012357806323b872dd1461028057806342842e0e146102a9578063629cb2e4146102d25780636352211e146102fd57806370a082311461033a578063712735971461037757610166565b806301ffc9a71461016b57806306fdde03146101a8578063081812fc146101d3578063095ea7b314610210578063128f406f146102395780631e3ac97114610264575b600080fd5b34801561017757600080fd5b50610192600480360381019061018d91906133c3565b6105db565b60405161019f9190613a59565b60405180910390f35b3480156101b457600080fd5b506101bd6106bd565b6040516101ca9190613a74565b60405180910390f35b3480156101df57600080fd5b506101fa60048036038101906101f59190613469565b61074f565b604051610207919061398b565b60405180910390f35b34801561021c57600080fd5b5061023760048036038101906102329190613387565b610795565b005b34801561024557600080fd5b5061024e6108ad565b60405161025b9190613cb1565b60405180910390f35b61027e60048036038101906102799190613492565b6108b7565b005b34801561028c57600080fd5b506102a760048036038101906102a29190613281565b6109d1565b005b3480156102b557600080fd5b506102d060048036038101906102cb9190613281565b610a31565b005b3480156102de57600080fd5b506102e7610a51565b6040516102f49190613a37565b60405180910390f35b34801561030957600080fd5b50610324600480360381019061031f9190613469565b610ed1565b604051610331919061398b565b60405180910390f35b34801561034657600080fd5b50610361600480360381019061035c919061321c565b610f58565b60405161036e9190613cb1565b60405180910390f35b610391600480360381019061038c9190613469565b611010565b005b6103ad60048036038101906103a89190613415565b6110aa565b6040516103ba9190613cb1565b60405180910390f35b3480156103cf57600080fd5b506103d8611172565b6040516103e59190613cb1565b60405180910390f35b3480156103fa57600080fd5b5061040361117c565b6040516104109190613a74565b60405180910390f35b34801561042557600080fd5b50610440600480360381019061043b9190613469565b61120e565b60405161044d9190613c96565b60405180910390f35b34801561046257600080fd5b5061046b61136c565b6040516104789190613c96565b60405180910390f35b61049b60048036038101906104969190613469565b6114d7565b005b3480156104a957600080fd5b506104c460048036038101906104bf919061334b565b611771565b005b3480156104d257600080fd5b506104ed60048036038101906104e891906132d0565b611787565b005b61050960048036038101906105049190613469565b6117e9565b005b34801561051757600080fd5b50610532600480360381019061052d9190613469565b611883565b60405161053f9190613a74565b60405180910390f35b34801561055457600080fd5b5061055d611996565b60405161056a9190613a37565b60405180910390f35b34801561057f57600080fd5b5061059a60048036038101906105959190613245565b611c07565b6040516105a79190613a59565b60405180910390f35b3480156105bc57600080fd5b506105c5611c9b565b6040516105d29190613cb1565b60405180910390f35b60007f80ac58cd000000000000000000000000000000000000000000000000000000007bffffffffffffffffffffffffffffffffffffffffffffffffffffffff1916827bffffffffffffffffffffffffffffffffffffffffffffffffffffffff191614806106a657507f5b5e139f000000000000000000000000000000000000000000000000000000007bffffffffffffffffffffffffffffffffffffffffffffffffffffffff1916827bffffffffffffffffffffffffffffffffffffffffffffffffffffffff1916145b806106b657506106b582611cac565b5b9050919050565b6060600080546106cc90613f40565b80601f01602080910402602001604051908101604052809291908181526020018280546106f890613f40565b80156107455780601f1061071a57610100808354040283529160200191610745565b820191906000526020600020905b81548152906001019060200180831161072857829003601f168201915b5050505050905090565b600061075a82611d16565b6004600083815260200190815260200160002060009054906101000a900473ffffffffffffffffffffffffffffffffffffffff169050919050565b60006107a082610ed1565b90508073ffffffffffffffffffffffffffffffffffffffff168373ffffffffffffffffffffffffffffffffffffffff161415610811576040517f08c379a000000000000000000000000000000000000000000000000000000000815260040161080890613c56565b60405180910390fd5b8073ffffffffffffffffffffffffffffffffffffffff16610830611d61565b73ffffffffffffffffffffffffffffffffffffffff16148061085f575061085e81610859611d61565b611c07565b5b61089e576040517f08c379a000000000000000000000000000000000000000000000000000000000815260040161089590613c76565b60405180910390fd5b6108a88383611d69565b505050565b6000600a54905090565b600034116108fa576040517f08c379a00000000000000000000000000000000000000000000000000000000081526004016108f190613c36565b60405180910390fd5b600a54341461093e576040517f08c379a000000000000000000000000000000000000000000000000000000000815260040161093590613bf6565b60405180910390fd5b610949333084611e22565b6001600c600084815260200190815260200160002060040160006101000a81548160ff02191690831515021790555033600c600084815260200190815260200160002060020160006101000a81548173ffffffffffffffffffffffffffffffffffffffff021916908373ffffffffffffffffffffffffffffffffffffffff1602179055505050565b6109e26109dc611d61565b8261211c565b610a21576040517f08c379a0000000000000000000000000000000000000000000000000000000008152600401610a1890613a96565b60405180910390fd5b610a2c838383611e22565b505050565b610a4c83838360405180602001604052806000815250611787565b505050565b60606000610a5f60086121b1565b905060008060005b83811015610b80573373ffffffffffffffffffffffffffffffffffffffff16600c6000600184610a979190613dcf565b815260200190815260200160002060010160009054906101000a900473ffffffffffffffffffffffffffffffffffffffff1673ffffffffffffffffffffffffffffffffffffffff161480610b5857503373ffffffffffffffffffffffffffffffffffffffff16600c6000600184610b0e9190613dcf565b815260200190815260200160002060020160009054906101000a900473ffffffffffffffffffffffffffffffffffffffff1673ffffffffffffffffffffffffffffffffffffffff16145b15610b6d57600183610b6a9190613dcf565b92505b8080610b7890613fa3565b915050610a67565b5060008267ffffffffffffffff811115610bc3577f4e487b7100000000000000000000000000000000000000000000000000000000600052604160045260246000fd5b604051908082528060200260200182016040528015610bfc57816020015b610be9612fc6565b815260200190600190039081610be15790505b50905060005b83811015610ec6573373ffffffffffffffffffffffffffffffffffffffff16600c6000600184610c329190613dcf565b815260200190815260200160002060010160009054906101000a900473ffffffffffffffffffffffffffffffffffffffff1673ffffffffffffffffffffffffffffffffffffffff161480610cf357503373ffffffffffffffffffffffffffffffffffffffff16600c6000600184610ca99190613dcf565b815260200190815260200160002060020160009054906101000a900473ffffffffffffffffffffffffffffffffffffffff1673ffffffffffffffffffffffffffffffffffffffff16145b15610eb3576000600182610d079190613dcf565b90506000600c60008381526020019081526020016000209050806040518060c0016040529081600082015481526020016001820160009054906101000a900473ffffffffffffffffffffffffffffffffffffffff1673ffffffffffffffffffffffffffffffffffffffff1673ffffffffffffffffffffffffffffffffffffffff1681526020016002820160009054906101000a900473ffffffffffffffffffffffffffffffffffffffff1673ffffffffffffffffffffffffffffffffffffffff1673ffffffffffffffffffffffffffffffffffffffff168152602001600382015481526020016004820160009054906101000a900460ff161515151581526020016004820160019054906101000a900473ffffffffffffffffffffffffffffffffffffffff1673ffffffffffffffffffffffffffffffffffffffff1673ffffffffffffffffffffffffffffffffffffffff1681525050848681518110610e96577f4e487b7100000000000000000000000000000000000000000000000000000000600052603260045260246000fd5b6020026020010181905250600185610eae9190613dcf565b945050505b8080610ebe90613fa3565b915050610c02565b508094505050505090565b600080610edd836121bf565b9050600073ffffffffffffffffffffffffffffffffffffffff168173ffffffffffffffffffffffffffffffffffffffff161415610f4f576040517f08c379a0000000000000000000000000000000000000000000000000000000008152600401610f4690613bd6565b60405180910390fd5b80915050919050565b60008073ffffffffffffffffffffffffffffffffffffffff168273ffffffffffffffffffffffffffffffffffffffff161415610fc9576040517f08c379a0000000000000000000000000000000000000000000000000000000008152600401610fc090613b76565b60405180910390fd5b600360008373ffffffffffffffffffffffffffffffffffffffff1673ffffffffffffffffffffffffffffffffffffffff168152602001908152602001600020549050919050565b600760009054906101000a900473ffffffffffffffffffffffffffffffffffffffff1673ffffffffffffffffffffffffffffffffffffffff163373ffffffffffffffffffffffffffffffffffffffff16146110a0576040517f08c379a000000000000000000000000000000000000000000000000000000000815260040161109790613c16565b60405180910390fd5b80600b8190555050565b60008034116110ee576040517f08c379a00000000000000000000000000000000000000000000000000000000081526004016110e590613c36565b60405180910390fd5b600a543414611132576040517f08c379a000000000000000000000000000000000000000000000000000000000815260040161112990613bf6565b60405180910390fd5b61113c60086121fc565b600061114860086121b1565b90506111543382612212565b61115e8185612230565b61116881846122a4565b8091505092915050565b6000600b54905090565b60606001805461118b90613f40565b80601f01602080910402602001604051908101604052809291908181526020018280546111b790613f40565b80156112045780601f106111d957610100808354040283529160200191611204565b820191906000526020600020905b8154815290600101906020018083116111e757829003601f168201915b5050505050905090565b611216612fc6565b600c60008381526020019081526020016000206040518060c0016040529081600082015481526020016001820160009054906101000a900473ffffffffffffffffffffffffffffffffffffffff1673ffffffffffffffffffffffffffffffffffffffff1673ffffffffffffffffffffffffffffffffffffffff1681526020016002820160009054906101000a900473ffffffffffffffffffffffffffffffffffffffff1673ffffffffffffffffffffffffffffffffffffffff1673ffffffffffffffffffffffffffffffffffffffff168152602001600382015481526020016004820160009054906101000a900460ff161515151581526020016004820160019054906101000a900473ffffffffffffffffffffffffffffffffffffffff1673ffffffffffffffffffffffffffffffffffffffff1673ffffffffffffffffffffffffffffffffffffffff16815250509050919050565b611374612fc6565b600061138060086121b1565b9050600c60008281526020019081526020016000206040518060c0016040529081600082015481526020016001820160009054906101000a900473ffffffffffffffffffffffffffffffffffffffff1673ffffffffffffffffffffffffffffffffffffffff1673ffffffffffffffffffffffffffffffffffffffff1681526020016002820160009054906101000a900473ffffffffffffffffffffffffffffffffffffffff1673ffffffffffffffffffffffffffffffffffffffff1673ffffffffffffffffffffffffffffffffffffffff168152602001600382015481526020016004820160009054906101000a900460ff161515151581526020016004820160019054906101000a900473ffffffffffffffffffffffffffffffffffffffff1673ffffffffffffffffffffffffffffffffffffffff1673ffffffffffffffffffffffffffffffffffffffff168152505091505090565b6000600c6000838152602001908152602001600020600301549050803414611534576040517f08c379a000000000000000000000000000000000000000000000000000000000815260040161152b90613b56565b60405180910390fd5b6000600c600084815260200190815260200160002060020160009054906101000a900473ffffffffffffffffffffffffffffffffffffffff1690506000600c600085815260200190815260200160002060040160019054906101000a900473ffffffffffffffffffffffffffffffffffffffff1690506000600c600086815260200190815260200160002060040160006101000a81548160ff02191690831515021790555033600c600086815260200190815260200160002060020160006101000a81548173ffffffffffffffffffffffffffffffffffffffff021916908373ffffffffffffffffffffffffffffffffffffffff16021790555061163860096121fc565b611643303386611e22565b61164d3085610795565b600760009054906101000a900473ffffffffffffffffffffffffffffffffffffffff1673ffffffffffffffffffffffffffffffffffffffff166108fc600a549081150290604051600060405180830381858888f193505050501580156116b7573d6000803e3d6000fd5b508173ffffffffffffffffffffffffffffffffffffffff166108fc600b54346116e09190613e25565b346116eb9190613e56565b9081150290604051600060405180830381858888f19350505050158015611716573d6000803e3d6000fd5b508073ffffffffffffffffffffffffffffffffffffffff166108fc600b543461173f9190613e25565b9081150290604051600060405180830381858888f1935050505015801561176a573d6000803e3d6000fd5b5050505050565b61178361177c611d61565b8383612483565b5050565b611798611792611d61565b8361211c565b6117d7576040517f08c379a00000000000000000000000000000000000000000000000000000000081526004016117ce90613a96565b60405180910390fd5b6117e3848484846125f0565b50505050565b600760009054906101000a900473ffffffffffffffffffffffffffffffffffffffff1673ffffffffffffffffffffffffffffffffffffffff163373ffffffffffffffffffffffffffffffffffffffff1614611879576040517f08c379a000000000000000000000000000000000000000000000000000000000815260040161187090613c16565b60405180910390fd5b80600a8190555050565b606061188e82611d16565b60006006600084815260200190815260200160002080546118ae90613f40565b80601f01602080910402602001604051908101604052809291908181526020018280546118da90613f40565b80156119275780601f106118fc57610100808354040283529160200191611927565b820191906000526020600020905b81548152906001019060200180831161190a57829003601f168201915b50505050509050600061193861264c565b905060008151141561194e578192505050611991565b60008251111561198357808260405160200161196b929190613967565b60405160208183030381529060405292505050611991565b61198c84612663565b925050505b919050565b606060006119a460086121b1565b905060008167ffffffffffffffff8111156119e8577f4e487b7100000000000000000000000000000000000000000000000000000000600052604160045260246000fd5b604051908082528060200260200182016040528015611a2157816020015b611a0e612fc6565b815260200190600190039081611a065790505b5090506000805b83811015611bfd576000600182611a3f9190613dcf565b90506000600c60008381526020019081526020016000209050806040518060c0016040529081600082015481526020016001820160009054906101000a900473ffffffffffffffffffffffffffffffffffffffff1673ffffffffffffffffffffffffffffffffffffffff1673ffffffffffffffffffffffffffffffffffffffff1681526020016002820160009054906101000a900473ffffffffffffffffffffffffffffffffffffffff1673ffffffffffffffffffffffffffffffffffffffff1673ffffffffffffffffffffffffffffffffffffffff168152602001600382015481526020016004820160009054906101000a900460ff161515151581526020016004820160019054906101000a900473ffffffffffffffffffffffffffffffffffffffff1673ffffffffffffffffffffffffffffffffffffffff1673ffffffffffffffffffffffffffffffffffffffff1681525050858581518110611bce577f4e487b7100000000000000000000000000000000000000000000000000000000600052603260045260246000fd5b6020026020010181905250600184611be69190613dcf565b935050508080611bf590613fa3565b915050611a28565b5081935050505090565b6000600560008473ffffffffffffffffffffffffffffffffffffffff1673ffffffffffffffffffffffffffffffffffffffff16815260200190815260200160002060008373ffffffffffffffffffffffffffffffffffffffff1673ffffffffffffffffffffffffffffffffffffffff16815260200190815260200160002060009054906101000a900460ff16905092915050565b6000611ca760086121b1565b905090565b60007f01ffc9a7000000000000000000000000000000000000000000000000000000007bffffffffffffffffffffffffffffffffffffffffffffffffffffffff1916827bffffffffffffffffffffffffffffffffffffffffffffffffffffffff1916149050919050565b611d1f816126cb565b611d5e576040517f08c379a0000000000000000000000000000000000000000000000000000000008152600401611d5590613bd6565b60405180910390fd5b50565b600033905090565b816004600083815260200190815260200160002060006101000a81548173ffffffffffffffffffffffffffffffffffffffff021916908373ffffffffffffffffffffffffffffffffffffffff160217905550808273ffffffffffffffffffffffffffffffffffffffff16611ddc83610ed1565b73ffffffffffffffffffffffffffffffffffffffff167f8c5be1e5ebec7d5bd14f71427d1e84f3dd0314c0f7b2291e5b200ac8c7c3b92560405160405180910390a45050565b8273ffffffffffffffffffffffffffffffffffffffff16611e4282610ed1565b73ffffffffffffffffffffffffffffffffffffffff1614611e98576040517f08c379a0000000000000000000000000000000000000000000000000000000008152600401611e8f90613ad6565b60405180910390fd5b600073ffffffffffffffffffffffffffffffffffffffff168273ffffffffffffffffffffffffffffffffffffffff161415611f08576040517f08c379a0000000000000000000000000000000000000000000000000000000008152600401611eff90613b16565b60405180910390fd5b611f15838383600161270c565b8273ffffffffffffffffffffffffffffffffffffffff16611f3582610ed1565b73ffffffffffffffffffffffffffffffffffffffff1614611f8b576040517f08c379a0000000000000000000000000000000000000000000000000000000008152600401611f8290613ad6565b60405180910390fd5b6004600082815260200190815260200160002060006101000a81549073ffffffffffffffffffffffffffffffffffffffff02191690556001600360008573ffffffffffffffffffffffffffffffffffffffff1673ffffffffffffffffffffffffffffffffffffffff168152602001908152602001600020600082825403925050819055506001600360008473ffffffffffffffffffffffffffffffffffffffff1673ffffffffffffffffffffffffffffffffffffffff16815260200190815260200160002060008282540192505081905550816002600083815260200190815260200160002060006101000a81548173ffffffffffffffffffffffffffffffffffffffff021916908373ffffffffffffffffffffffffffffffffffffffff160217905550808273ffffffffffffffffffffffffffffffffffffffff168473ffffffffffffffffffffffffffffffffffffffff167fddf252ad1be2c89b69c2b068fc378daa952ba7f163c4a11628f55a4df523b3ef60405160405180910390a46121178383836001612832565b505050565b60008061212883610ed1565b90508073ffffffffffffffffffffffffffffffffffffffff168473ffffffffffffffffffffffffffffffffffffffff16148061216a57506121698185611c07565b5b806121a857508373ffffffffffffffffffffffffffffffffffffffff166121908461074f565b73ffffffffffffffffffffffffffffffffffffffff16145b91505092915050565b600081600001549050919050565b60006002600083815260200190815260200160002060009054906101000a900473ffffffffffffffffffffffffffffffffffffffff169050919050565b6001816000016000828254019250508190555050565b61222c828260405180602001604052806000815250612838565b5050565b612239826126cb565b612278576040517f08c379a000000000000000000000000000000000000000000000000000000000815260040161226f90613b96565b60405180910390fd5b8060066000848152602001908152602001600020908051906020019061229f929190613040565b505050565b6122af333084611e22565b6040518060c001604052808381526020013073ffffffffffffffffffffffffffffffffffffffff1681526020013373ffffffffffffffffffffffffffffffffffffffff1681526020018281526020016001151581526020013373ffffffffffffffffffffffffffffffffffffffff16815250600c60008481526020019081526020016000206000820151816000015560208201518160010160006101000a81548173ffffffffffffffffffffffffffffffffffffffff021916908373ffffffffffffffffffffffffffffffffffffffff16021790555060408201518160020160006101000a81548173ffffffffffffffffffffffffffffffffffffffff021916908373ffffffffffffffffffffffffffffffffffffffff1602179055506060820151816003015560808201518160040160006101000a81548160ff02191690831515021790555060a08201518160040160016101000a81548173ffffffffffffffffffffffffffffffffffffffff021916908373ffffffffffffffffffffffffffffffffffffffff160217905550905050817f9339409317fd01fabff48b703019016f49159bacc801ae872d2ca637d226e4c0303384600160405161247794939291906139a6565b60405180910390a25050565b8173ffffffffffffffffffffffffffffffffffffffff168373ffffffffffffffffffffffffffffffffffffffff1614156124f2576040517f08c379a00000000000000000000000000000000000000000000000000000000081526004016124e990613b36565b60405180910390fd5b80600560008573ffffffffffffffffffffffffffffffffffffffff1673ffffffffffffffffffffffffffffffffffffffff16815260200190815260200160002060008473ffffffffffffffffffffffffffffffffffffffff1673ffffffffffffffffffffffffffffffffffffffff16815260200190815260200160002060006101000a81548160ff0219169083151502179055508173ffffffffffffffffffffffffffffffffffffffff168373ffffffffffffffffffffffffffffffffffffffff167f17307eab39ab6107e8899845ad3d59bd9653f200f220920489ca2b5937696c31836040516125e39190613a59565b60405180910390a3505050565b6125fb848484611e22565b61260784848484612893565b612646576040517f08c379a000000000000000000000000000000000000000000000000000000000815260040161263d90613ab6565b60405180910390fd5b50505050565b606060405180602001604052806000815250905090565b606061266e82611d16565b600061267861264c565b9050600081511161269857604051806020016040528060008152506126c3565b806126a284612a2a565b6040516020016126b3929190613967565b6040516020818303038152906040525b915050919050565b60008073ffffffffffffffffffffffffffffffffffffffff166126ed836121bf565b73ffffffffffffffffffffffffffffffffffffffff1614159050919050565b600181111561282c57600073ffffffffffffffffffffffffffffffffffffffff168473ffffffffffffffffffffffffffffffffffffffff16146127a05780600360008673ffffffffffffffffffffffffffffffffffffffff1673ffffffffffffffffffffffffffffffffffffffff16815260200190815260200160002060008282546127989190613e56565b925050819055505b600073ffffffffffffffffffffffffffffffffffffffff168373ffffffffffffffffffffffffffffffffffffffff161461282b5780600360008573ffffffffffffffffffffffffffffffffffffffff1673ffffffffffffffffffffffffffffffffffffffff16815260200190815260200160002060008282546128239190613dcf565b925050819055505b5b50505050565b50505050565b6128428383612b4e565b61284f6000848484612893565b61288e576040517f08c379a000000000000000000000000000000000000000000000000000000000815260040161288590613ab6565b60405180910390fd5b505050565b60006128b48473ffffffffffffffffffffffffffffffffffffffff16612d6c565b15612a1d578373ffffffffffffffffffffffffffffffffffffffff1663150b7a026128dd611d61565b8786866040518563ffffffff1660e01b81526004016128ff94939291906139eb565b602060405180830381600087803b15801561291957600080fd5b505af192505050801561294a57506040513d601f19601f8201168201806040525081019061294791906133ec565b60015b6129cd573d806000811461297a576040519150601f19603f3d011682016040523d82523d6000602084013e61297f565b606091505b506000815114156129c5576040517f08c379a00000000000000000000000000000000000000000000000000000000081526004016129bc90613ab6565b60405180910390fd5b805181602001fd5b63150b7a0260e01b7bffffffffffffffffffffffffffffffffffffffffffffffffffffffff1916817bffffffffffffffffffffffffffffffffffffffffffffffffffffffff191614915050612a22565b600190505b949350505050565b606060006001612a3984612d8f565b01905060008167ffffffffffffffff811115612a7e577f4e487b7100000000000000000000000000000000000000000000000000000000600052604160045260246000fd5b6040519080825280601f01601f191660200182016040528015612ab05781602001600182028036833780820191505090505b509050600082602001820190505b600115612b43578080600190039150507f3031323334353637383961626364656600000000000000000000000000000000600a86061a8153600a8581612b2d577f4e487b7100000000000000000000000000000000000000000000000000000000600052601260045260246000fd5b0494506000851415612b3e57612b43565b612abe565b819350505050919050565b600073ffffffffffffffffffffffffffffffffffffffff168273ffffffffffffffffffffffffffffffffffffffff161415612bbe576040517f08c379a0000000000000000000000000000000000000000000000000000000008152600401612bb590613bb6565b60405180910390fd5b612bc7816126cb565b15612c07576040517f08c379a0000000000000000000000000000000000000000000000000000000008152600401612bfe90613af6565b60405180910390fd5b612c1560008383600161270c565b612c1e816126cb565b15612c5e576040517f08c379a0000000000000000000000000000000000000000000000000000000008152600401612c5590613af6565b60405180910390fd5b6001600360008473ffffffffffffffffffffffffffffffffffffffff1673ffffffffffffffffffffffffffffffffffffffff16815260200190815260200160002060008282540192505081905550816002600083815260200190815260200160002060006101000a81548173ffffffffffffffffffffffffffffffffffffffff021916908373ffffffffffffffffffffffffffffffffffffffff160217905550808273ffffffffffffffffffffffffffffffffffffffff16600073ffffffffffffffffffffffffffffffffffffffff167fddf252ad1be2c89b69c2b068fc378daa952ba7f163c4a11628f55a4df523b3ef60405160405180910390a4612d68600083836001612832565b5050565b6000808273ffffffffffffffffffffffffffffffffffffffff163b119050919050565b600080600090507a184f03e93ff9f4daa797ed6e38ed64bf6a1f0100000000000000008310612e13577a184f03e93ff9f4daa797ed6e38ed64bf6a1f0100000000000000008381612e09577f4e487b7100000000000000000000000000000000000000000000000000000000600052601260045260246000fd5b0492506040810190505b6d04ee2d6d415b85acef81000000008310612e76576d04ee2d6d415b85acef81000000008381612e6c577f4e487b7100000000000000000000000000000000000000000000000000000000600052601260045260246000fd5b0492506020810190505b662386f26fc100008310612ecb57662386f26fc100008381612ec1577f4e487b7100000000000000000000000000000000000000000000000000000000600052601260045260246000fd5b0492506010810190505b6305f5e1008310612f1a576305f5e1008381612f10577f4e487b7100000000000000000000000000000000000000000000000000000000600052601260045260246000fd5b0492506008810190505b6127108310612f65576127108381612f5b577f4e487b7100000000000000000000000000000000000000000000000000000000600052601260045260246000fd5b0492506004810190505b60648310612fae5760648381612fa4577f4e487b7100000000000000000000000000000000000000000000000000000000600052601260045260246000fd5b0492506002810190505b600a8310612fbd576001810190505b80915050919050565b6040518060c0016040528060008152602001600073ffffffffffffffffffffffffffffffffffffffff168152602001600073ffffffffffffffffffffffffffffffffffffffff16815260200160008152602001600015158152602001600073ffffffffffffffffffffffffffffffffffffffff1681525090565b82805461304c90613f40565b90600052602060002090601f01602090048101928261306e57600085556130b5565b82601f1061308757805160ff19168380011785556130b5565b828001600101855582156130b5579182015b828111156130b4578251825591602001919060010190613099565b5b5090506130c291906130c6565b5090565b5b808211156130df5760008160009055506001016130c7565b5090565b60006130f66130f184613cf1565b613ccc565b90508281526020810184848401111561310e57600080fd5b613119848285613efe565b509392505050565b600061313461312f84613d22565b613ccc565b90508281526020810184848401111561314c57600080fd5b613157848285613efe565b509392505050565b60008135905061316e816144c5565b92915050565b600081359050613183816144dc565b92915050565b600081359050613198816144f3565b92915050565b6000815190506131ad816144f3565b92915050565b600082601f8301126131c457600080fd5b81356131d48482602086016130e3565b91505092915050565b600082601f8301126131ee57600080fd5b81356131fe848260208601613121565b91505092915050565b6000813590506132168161450a565b92915050565b60006020828403121561322e57600080fd5b600061323c8482850161315f565b91505092915050565b6000806040838503121561325857600080fd5b60006132668582860161315f565b92505060206132778582860161315f565b9150509250929050565b60008060006060848603121561329657600080fd5b60006132a48682870161315f565b93505060206132b58682870161315f565b92505060406132c686828701613207565b9150509250925092565b600080600080608085870312156132e657600080fd5b60006132f48782880161315f565b94505060206133058782880161315f565b935050604061331687828801613207565b925050606085013567ffffffffffffffff81111561333357600080fd5b61333f878288016131b3565b91505092959194509250565b6000806040838503121561335e57600080fd5b600061336c8582860161315f565b925050602061337d85828601613174565b9150509250929050565b6000806040838503121561339a57600080fd5b60006133a88582860161315f565b92505060206133b985828601613207565b9150509250929050565b6000602082840312156133d557600080fd5b60006133e384828501613189565b91505092915050565b6000602082840312156133fe57600080fd5b600061340c8482850161319e565b91505092915050565b6000806040838503121561342857600080fd5b600083013567ffffffffffffffff81111561344257600080fd5b61344e858286016131dd565b925050602061345f85828601613207565b9150509250929050565b60006020828403121561347b57600080fd5b600061348984828501613207565b91505092915050565b600080604083850312156134a557600080fd5b60006134b385828601613207565b92505060206134c485828601613207565b9150509250929050565b60006134da8383613853565b60c08301905092915050565b6134ef81613e8a565b82525050565b6134fe81613e8a565b82525050565b600061350f82613d63565b6135198185613d91565b935061352483613d53565b8060005b8381101561355557815161353c88826134ce565b975061354783613d84565b925050600181019050613528565b5085935050505092915050565b61356b81613e9c565b82525050565b61357a81613e9c565b82525050565b600061358b82613d6e565b6135958185613da2565b93506135a5818560208601613f0d565b6135ae816140a8565b840191505092915050565b60006135c482613d79565b6135ce8185613db3565b93506135de818560208601613f0d565b6135e7816140a8565b840191505092915050565b60006135fd82613d79565b6136078185613dc4565b9350613617818560208601613f0d565b80840191505092915050565b6000613630602d83613db3565b915061363b826140b9565b604082019050919050565b6000613653603283613db3565b915061365e82614108565b604082019050919050565b6000613676602583613db3565b915061368182614157565b604082019050919050565b6000613699601c83613db3565b91506136a4826141a6565b602082019050919050565b60006136bc602483613db3565b91506136c7826141cf565b604082019050919050565b60006136df601983613db3565b91506136ea8261421e565b602082019050919050565b6000613702603c83613db3565b915061370d82614247565b604082019050919050565b6000613725602983613db3565b915061373082614296565b604082019050919050565b6000613748602e83613db3565b9150613753826142e5565b604082019050919050565b600061376b602083613db3565b915061377682614334565b602082019050919050565b600061378e601883613db3565b91506137998261435d565b602082019050919050565b60006137b1601983613db3565b91506137bc82614386565b602082019050919050565b60006137d4601783613db3565b91506137df826143af565b602082019050919050565b60006137f7602283613db3565b9150613802826143d8565b604082019050919050565b600061381a602183613db3565b915061382582614427565b604082019050919050565b600061383d603d83613db3565b915061384882614476565b604082019050919050565b60c0820160008201516138696000850182613949565b50602082015161387c60208501826134e6565b50604082015161388f60408501826134e6565b5060608201516138a26060850182613949565b5060808201516138b56080850182613562565b5060a08201516138c860a08501826134e6565b50505050565b60c0820160008201516138e46000850182613949565b5060208201516138f760208501826134e6565b50604082015161390a60408501826134e6565b50606082015161391d6060850182613949565b5060808201516139306080850182613562565b5060a082015161394360a08501826134e6565b50505050565b61395281613ef4565b82525050565b61396181613ef4565b82525050565b600061397382856135f2565b915061397f82846135f2565b91508190509392505050565b60006020820190506139a060008301846134f5565b92915050565b60006080820190506139bb60008301876134f5565b6139c860208301866134f5565b6139d56040830185613958565b6139e26060830184613571565b95945050505050565b6000608082019050613a0060008301876134f5565b613a0d60208301866134f5565b613a1a6040830185613958565b8181036060830152613a2c8184613580565b905095945050505050565b60006020820190508181036000830152613a518184613504565b905092915050565b6000602082019050613a6e6000830184613571565b92915050565b60006020820190508181036000830152613a8e81846135b9565b905092915050565b60006020820190508181036000830152613aaf81613623565b9050919050565b60006020820190508181036000830152613acf81613646565b9050919050565b60006020820190508181036000830152613aef81613669565b9050919050565b60006020820190508181036000830152613b0f8161368c565b9050919050565b60006020820190508181036000830152613b2f816136af565b9050919050565b60006020820190508181036000830152613b4f816136d2565b9050919050565b60006020820190508181036000830152613b6f816136f5565b9050919050565b60006020820190508181036000830152613b8f81613718565b9050919050565b60006020820190508181036000830152613baf8161373b565b9050919050565b60006020820190508181036000830152613bcf8161375e565b9050919050565b60006020820190508181036000830152613bef81613781565b9050919050565b60006020820190508181036000830152613c0f816137a4565b9050919050565b60006020820190508181036000830152613c2f816137c7565b9050919050565b60006020820190508181036000830152613c4f816137ea565b9050919050565b60006020820190508181036000830152613c6f8161380d565b9050919050565b60006020820190508181036000830152613c8f81613830565b9050919050565b600060c082019050613cab60008301846138ce565b92915050565b6000602082019050613cc66000830184613958565b92915050565b6000613cd6613ce7565b9050613ce28282613f72565b919050565b6000604051905090565b600067ffffffffffffffff821115613d0c57613d0b614079565b5b613d15826140a8565b9050602081019050919050565b600067ffffffffffffffff821115613d3d57613d3c614079565b5b613d46826140a8565b9050602081019050919050565b6000819050602082019050919050565b600081519050919050565b600081519050919050565b600081519050919050565b6000602082019050919050565b600082825260208201905092915050565b600082825260208201905092915050565b600082825260208201905092915050565b600081905092915050565b6000613dda82613ef4565b9150613de583613ef4565b9250827fffffffffffffffffffffffffffffffffffffffffffffffffffffffffffffffff03821115613e1a57613e19613fec565b5b828201905092915050565b6000613e3082613ef4565b9150613e3b83613ef4565b925082613e4b57613e4a61401b565b5b828204905092915050565b6000613e6182613ef4565b9150613e6c83613ef4565b925082821015613e7f57613e7e613fec565b5b828203905092915050565b6000613e9582613ed4565b9050919050565b60008115159050919050565b60007fffffffff0000000000000000000000000000000000000000000000000000000082169050919050565b600073ffffffffffffffffffffffffffffffffffffffff82169050919050565b6000819050919050565b82818337600083830152505050565b60005b83811015613f2b578082015181840152602081019050613f10565b83811115613f3a576000848401525b50505050565b60006002820490506001821680613f5857607f821691505b60208210811415613f6c57613f6b61404a565b5b50919050565b613f7b826140a8565b810181811067ffffffffffffffff82111715613f9a57613f99614079565b5b80604052505050565b6000613fae82613ef4565b91507fffffffffffffffffffffffffffffffffffffffffffffffffffffffffffffffff821415613fe157613fe0613fec565b5b600182019050919050565b7f4e487b7100000000000000000000000000000000000000000000000000000000600052601160045260246000fd5b7f4e487b7100000000000000000000000000000000000000000000000000000000600052601260045260246000fd5b7f4e487b7100000000000000000000000000000000000000000000000000000000600052602260045260246000fd5b7f4e487b7100000000000000000000000000000000000000000000000000000000600052604160045260246000fd5b6000601f19601f8301169050919050565b7f4552433732313a2063616c6c6572206973206e6f7420746f6b656e206f776e6560008201527f72206f7220617070726f76656400000000000000000000000000000000000000602082015250565b7f4552433732313a207472616e7366657220746f206e6f6e20455243373231526560008201527f63656976657220696d706c656d656e7465720000000000000000000000000000602082015250565b7f4552433732313a207472616e736665722066726f6d20696e636f72726563742060008201527f6f776e6572000000000000000000000000000000000000000000000000000000602082015250565b7f4552433732313a20746f6b656e20616c7265616479206d696e74656400000000600082015250565b7f4552433732313a207472616e7366657220746f20746865207a65726f2061646460008201527f7265737300000000000000000000000000000000000000000000000000000000602082015250565b7f4552433732313a20617070726f766520746f2063616c6c657200000000000000600082015250565b7f506c73207375626d6974207468652061736b696e6720707269636520666f722060008201527f746865204e465420696e206f7264657220746f20707572636861736500000000602082015250565b7f4552433732313a2061646472657373207a65726f206973206e6f74206120766160008201527f6c6964206f776e65720000000000000000000000000000000000000000000000602082015250565b7f45524337323155524953746f726167653a2055524920736574206f66206e6f6e60008201527f6578697374656e7420746f6b656e000000000000000000000000000000000000602082015250565b7f4552433732313a206d696e7420746f20746865207a65726f2061646472657373600082015250565b7f4552433732313a20696e76616c696420746f6b656e2049440000000000000000600082015250565b7f73656e6420656e6f75676820657468657220746f206c69737400000000000000600082015250565b7f4f6e6c79206f776e65722063616e207472616e73666572000000000000000000600082015250565b7f6d616b652073757265207468652070726963652069736e2774206e656761746960008201527f7665000000000000000000000000000000000000000000000000000000000000602082015250565b7f4552433732313a20617070726f76616c20746f2063757272656e74206f776e6560008201527f7200000000000000000000000000000000000000000000000000000000000000602082015250565b7f4552433732313a20617070726f76652063616c6c6572206973206e6f7420746f60008201527f6b656e206f776e6572206f7220617070726f76656420666f7220616c6c000000602082015250565b6144ce81613e8a565b81146144d957600080fd5b50565b6144e581613e9c565b81146144f057600080fd5b50565b6144fc81613ea8565b811461450757600080fd5b50565b61451381613ef4565b811461451e57600080fd5b5056fea2646970667358221220a01f0abf6739e9c341265b3e693f522353c4fe1ac17b681fff2122403dba4e5664736f6c63430008040033",
  "linkReferences": {},
  "deployedLinkReferences": {}
}